{
  "contractName": "StudentResult",
  "abi": [
    {
      "inputs": [],
      "stateMutability": "nonpayable",
      "type": "constructor"
    },
    {
      "inputs": [],
      "name": "studentCount",
      "outputs": [
        {
          "internalType": "uint256",
          "name": "",
          "type": "uint256"
        }
      ],
      "stateMutability": "view",
      "type": "function"
    },
    {
      "inputs": [
        {
          "internalType": "uint256",
          "name": "",
          "type": "uint256"
        }
      ],
      "name": "students",
      "outputs": [
        {
          "internalType": "uint256",
          "name": "id",
          "type": "uint256"
        },
        {
          "internalType": "string",
          "name": "name",
          "type": "string"
        },
        {
          "internalType": "string",
          "name": "subject1",
          "type": "string"
        },
        {
          "internalType": "int256",
          "name": "subject1Marks",
          "type": "int256"
        },
        {
          "internalType": "string",
          "name": "subject2",
          "type": "string"
        },
        {
          "internalType": "int256",
          "name": "subject2Marks",
          "type": "int256"
        },
        {
          "internalType": "string",
          "name": "subject3",
          "type": "string"
        },
        {
          "internalType": "int256",
          "name": "subject3Marks",
          "type": "int256"
        },
        {
          "internalType": "string",
          "name": "subject4",
          "type": "string"
        },
        {
          "internalType": "int256",
          "name": "subject4Marks",
          "type": "int256"
        },
        {
          "internalType": "string",
          "name": "subject5",
          "type": "string"
        },
        {
          "internalType": "int256",
          "name": "subject5Marks",
          "type": "int256"
        }
      ],
      "stateMutability": "view",
      "type": "function"
    },
    {
      "inputs": [
        {
          "internalType": "string",
          "name": "_name",
          "type": "string"
        },
        {
          "internalType": "string",
          "name": "subject1",
          "type": "string"
        },
        {
          "internalType": "int256",
          "name": "subject1Marks",
          "type": "int256"
        },
        {
          "internalType": "string",
          "name": "subject2",
          "type": "string"
        },
        {
          "internalType": "int256",
          "name": "subject2Marks",
          "type": "int256"
        },
        {
          "internalType": "string",
          "name": "subject3",
          "type": "string"
        },
        {
          "internalType": "int256",
          "name": "subject3Marks",
          "type": "int256"
        },
        {
          "internalType": "string",
          "name": "subject4",
          "type": "string"
        },
        {
          "internalType": "int256",
          "name": "subject4Marks",
          "type": "int256"
        },
        {
          "internalType": "string",
          "name": "subject5",
          "type": "string"
        },
        {
          "internalType": "int256",
          "name": "subject5Marks",
          "type": "int256"
        }
      ],
      "name": "createStudent",
      "outputs": [],
      "stateMutability": "nonpayable",
      "type": "function"
    }
  ],
  "bytecode": "0x6080604052600080553480156200001557600080fd5b50620000fb604051806040016040528060058152602001640a0c2e4e8d60db1b8152506040518060400160405280600c81526020016b4d617468656d61746963686560a01b815250604b604051806040016040528060078152602001665068797369637360c81b815250604b604051806040016040528060098152602001684368656d697374727960b81b81525060386040518060400160405280600881526020016743616c63756c757360c01b815250605a6040518060400160405280600c81526020016b6e6575726f736369656e636560a01b81525060266200010160201b60201c565b62000391565b60008054908062000112836200032a565b919050555060405180610180016040528060005481526020018c81526020018b81526020018a8152602001898152602001888152602001878152602001868152602001858152602001848152602001838152602001828152506001600080548152602001908152602001600020600082015181600001556020820151816001019080519060200190620001a792919062000284565b5060408201518051620001c591600284019160209091019062000284565b506060820151600382015560808201518051620001ed91600484019160209091019062000284565b5060a0820151600582015560c082015180516200021591600684019160209091019062000284565b5060e0820151600782015561010082015180516200023e91600884019160209091019062000284565b50610120820151600982015561014082015180516200026891600a84019160209091019062000284565b5061016082015181600b01559050505050505050505050505050565b828054620002929062000354565b90600052602060002090601f016020900481019282620002b6576000855562000301565b82601f10620002d157805160ff191683800117855562000301565b8280016001018555821562000301579182015b8281111562000301578251825591602001919060010190620002e4565b506200030f92915062000313565b5090565b5b808211156200030f576000815560010162000314565b60006000198214156200034d57634e487b7160e01b600052601160045260246000fd5b5060010190565b600181811c908216806200036957607f821691505b602082108114156200038b57634e487b7160e01b600052602260045260246000fd5b50919050565b6109c280620003a16000396000f3fe608060405234801561001057600080fd5b50600436106100415760003560e01c806306ead22e14610046578063752c3d581461007a578063e581f9ee1461008f575b600080fd5b61005961005436600461063c565b6100a6565b6040516100719c9b9a999897969594939291906106a2565b60405180910390f35b61008d6100883660046107f9565b61042e565b005b61009860005481565b604051908152602001610071565b6001602081905260009182526040909120805491810180546100c790610928565b80601f01602080910402602001604051908101604052809291908181526020018280546100f390610928565b80156101405780601f1061011557610100808354040283529160200191610140565b820191906000526020600020905b81548152906001019060200180831161012357829003601f168201915b50505050509080600201805461015590610928565b80601f016020809104026020016040519081016040528092919081815260200182805461018190610928565b80156101ce5780601f106101a3576101008083540402835291602001916101ce565b820191906000526020600020905b8154815290600101906020018083116101b157829003601f168201915b5050505050908060030154908060040180546101e990610928565b80601f016020809104026020016040519081016040528092919081815260200182805461021590610928565b80156102625780601f1061023757610100808354040283529160200191610262565b820191906000526020600020905b81548152906001019060200180831161024557829003601f168201915b50505050509080600501549080600601805461027d90610928565b80601f01602080910402602001604051908101604052809291908181526020018280546102a990610928565b80156102f65780601f106102cb576101008083540402835291602001916102f6565b820191906000526020600020905b8154815290600101906020018083116102d957829003601f168201915b50505050509080600701549080600801805461031190610928565b80601f016020809104026020016040519081016040528092919081815260200182805461033d90610928565b801561038a5780601f1061035f5761010080835404028352916020019161038a565b820191906000526020600020905b81548152906001019060200180831161036d57829003601f168201915b50505050509080600901549080600a0180546103a590610928565b80601f01602080910402602001604051908101604052809291908181526020018280546103d190610928565b801561041e5780601f106103f35761010080835404028352916020019161041e565b820191906000526020600020905b81548152906001019060200180831161040157829003601f168201915b50505050509080600b015490508c565b60008054908061043d83610963565b919050555060405180610180016040528060005481526020018c81526020018b81526020018a81526020018981526020018881526020018781526020018681526020018581526020018481526020018381526020018281525060016000805481526020019081526020016000206000820151816000015560208201518160010190805190602001906104d09291906105a3565b50604082015180516104ec9160028401916020909101906105a3565b5060608201516003820155608082015180516105129160048401916020909101906105a3565b5060a0820151600582015560c082015180516105389160068401916020909101906105a3565b5060e08201516007820155610100820151805161055f9160088401916020909101906105a3565b506101208201516009820155610140820151805161058791600a8401916020909101906105a3565b5061016082015181600b01559050505050505050505050505050565b8280546105af90610928565b90600052602060002090601f0160209004810192826105d15760008555610617565b82601f106105ea57805160ff1916838001178555610617565b82800160010185558215610617579182015b828111156106175782518255916020019190600101906105fc565b50610623929150610627565b5090565b5b808211156106235760008155600101610628565b60006020828403121561064e57600080fd5b5035919050565b6000815180845260005b8181101561067b5760208185018101518683018201520161065f565b8181111561068d576000602083870101525b50601f01601f19169290920160200192915050565b60006101808e83528060208401526106bc8184018f610655565b905082810360408401526106d0818e610655565b90508b606084015282810360808401526106ea818c610655565b90508960a084015282810360c0840152610704818a610655565b90508760e084015282810361010084015261071f8188610655565b90508561012084015282810361014084015261073b8186610655565b915050826101608301529d9c50505050505050505050505050565b634e487b7160e01b600052604160045260246000fd5b600082601f83011261077d57600080fd5b813567ffffffffffffffff8082111561079857610798610756565b604051601f8301601f19908116603f011681019082821181831017156107c0576107c0610756565b816040528381528660208588010111156107d957600080fd5b836020870160208301376000602085830101528094505050505092915050565b60008060008060008060008060008060006101608c8e03121561081b57600080fd5b67ffffffffffffffff808d35111561083257600080fd5b61083f8e8e358f0161076c565b9b508060208e0135111561085257600080fd5b6108628e60208f01358f0161076c565b9a5060408d013599508060608e0135111561087c57600080fd5b61088c8e60608f01358f0161076c565b985060808d013597508060a08e013511156108a657600080fd5b6108b68e60a08f01358f0161076c565b965060c08d013595508060e08e013511156108d057600080fd5b6108e08e60e08f01358f0161076c565b94506101008d01359350806101208e013511156108fc57600080fd5b5061090e8d6101208e01358e0161076c565b91506101408c013590509295989b509295989b9093969950565b600181811c9082168061093c57607f821691505b6020821081141561095d57634e487b7160e01b600052602260045260246000fd5b50919050565b600060001982141561098557634e487b7160e01b600052601160045260246000fd5b506001019056fea264697066735822122054408a1643e831692fc4424252ae713ec0ec4eaa0da0df8996280e9ef4d0da0864736f6c634300080b0033",
  "immutableReferences": {},
  "source": "// SPDX-License-Identifier: MIT\npragma solidity >=0.4.22 <0.9.0;\n\ncontract StudentResult {\n    uint256 public studentCount = 0;\n\n    struct Student {\n        uint256 id;\n        string name;\n        string subject1;\n        int256 subject1Marks;\n        string subject2;\n        int256 subject2Marks;\n        string subject3;\n        int256 subject3Marks;\n        string subject4;\n        int256 subject4Marks;\n        string subject5;\n        int256 subject5Marks;\n    }\n\n    // event StudentCreated(\n    //     uint256 id,\n    //     string name,\n    //     string subject1,\n    //     int256 subject1Marks,\n    //     string subject2,\n    //     int256 subject2Marks,\n    //     string subject3,\n    //     int256 subject3Marks,\n    //     string subject4,\n    //     int256 subject4Marks,\n    //     string subject5,\n    //     int256 subject5Marks\n    // );\n\n    mapping(uint256 => Student) public students;\n\n    constructor() {\n        createStudent(\n            \"Parth\",\n            \"Mathematiche\",\n            75,\n            \"Physics\",\n            75,\n            \"Chemistry\",\n            56,\n            \"Calculus\",\n            90,\n            \"neuroscience\",\n            38\n        );\n    }\n\n    function createStudent(\n        string memory _name,\n        string memory subject1,\n        int256 subject1Marks,\n        string memory subject2,\n        int256 subject2Marks,\n        string memory subject3,\n        int256 subject3Marks,\n        string memory subject4,\n        int256 subject4Marks,\n        string memory subject5,\n        int256 subject5Marks\n    ) public {\n        studentCount++;\n\n        students[studentCount] = Student(\n            studentCount,\n            _name,\n            subject1,\n            subject1Marks,\n            subject2,\n            subject2Marks,\n            subject3,\n            subject3Marks,\n            subject4,\n            subject4Marks,\n            subject5,\n            subject5Marks\n        );\n\n        // emit StudentCreated(\n        //     studentCount,\n        //     _name,\n        //     subject1,\n        //     subject1Marks,\n        //     subject2,\n        //     subject2Marks,\n        //     subject3,\n        //     subject3Marks,\n        //     subject4,\n        //     subject4Marks,\n        //     subject5,\n        //     subject5Marks\n        // );\n    }\n}\n// GQCgtd@6421*",
  "sourcePath": "/Users/par1/projects/student_result_binance/contracts/StudentResult.sol",
  "compiler": {
    "name": "solc",
    "version": "0.8.11+commit.d7f03943.Emscripten.clang"
  },
  "schemaVersion": "3.4.4",
  "updatedAt": "2022-02-03T03:08:46.569Z",
  "devdoc": {
    "kind": "dev",
    "methods": {},
    "version": 1
  },
  "userdoc": {
    "kind": "user",
    "methods": {},
    "version": 1
  }
}