{
  "contractName": "StudentResult",
  "abi": [
    {
      "inputs": [],
      "stateMutability": "nonpayable",
      "type": "constructor"
    },
    {
      "anonymous": false,
      "inputs": [
        {
          "indexed": false,
          "internalType": "uint256",
          "name": "id",
          "type": "uint256"
        },
        {
          "indexed": false,
          "internalType": "string",
          "name": "name",
          "type": "string"
        },
        {
          "indexed": false,
          "internalType": "string",
          "name": "subject1",
          "type": "string"
        },
        {
          "indexed": false,
          "internalType": "int256",
          "name": "subject1Marks",
          "type": "int256"
        },
        {
          "indexed": false,
          "internalType": "string",
          "name": "subject2",
          "type": "string"
        },
        {
          "indexed": false,
          "internalType": "int256",
          "name": "subject2Marks",
          "type": "int256"
        },
        {
          "indexed": false,
          "internalType": "string",
          "name": "subject3",
          "type": "string"
        },
        {
          "indexed": false,
          "internalType": "int256",
          "name": "subject3Marks",
          "type": "int256"
        },
        {
          "indexed": false,
          "internalType": "string",
          "name": "subject4",
          "type": "string"
        },
        {
          "indexed": false,
          "internalType": "int256",
          "name": "subject4Marks",
          "type": "int256"
        },
        {
          "indexed": false,
          "internalType": "string",
          "name": "subject5",
          "type": "string"
        },
        {
          "indexed": false,
          "internalType": "int256",
          "name": "subject5Marks",
          "type": "int256"
        }
      ],
      "name": "StudentCreated",
      "type": "event"
    },
    {
      "inputs": [],
      "name": "studentCount",
      "outputs": [
        {
          "internalType": "uint256",
          "name": "",
          "type": "uint256"
        }
      ],
      "stateMutability": "view",
      "type": "function",
      "constant": true
    },
    {
      "inputs": [
        {
          "internalType": "uint256",
          "name": "",
          "type": "uint256"
        }
      ],
      "name": "students",
      "outputs": [
        {
          "internalType": "uint256",
          "name": "id",
          "type": "uint256"
        },
        {
          "internalType": "string",
          "name": "name",
          "type": "string"
        },
        {
          "internalType": "string",
          "name": "subject1",
          "type": "string"
        },
        {
          "internalType": "int256",
          "name": "subject1Marks",
          "type": "int256"
        },
        {
          "internalType": "string",
          "name": "subject2",
          "type": "string"
        },
        {
          "internalType": "int256",
          "name": "subject2Marks",
          "type": "int256"
        },
        {
          "internalType": "string",
          "name": "subject3",
          "type": "string"
        },
        {
          "internalType": "int256",
          "name": "subject3Marks",
          "type": "int256"
        },
        {
          "internalType": "string",
          "name": "subject4",
          "type": "string"
        },
        {
          "internalType": "int256",
          "name": "subject4Marks",
          "type": "int256"
        },
        {
          "internalType": "string",
          "name": "subject5",
          "type": "string"
        },
        {
          "internalType": "int256",
          "name": "subject5Marks",
          "type": "int256"
        }
      ],
      "stateMutability": "view",
      "type": "function",
      "constant": true
    },
    {
      "inputs": [
        {
          "internalType": "string",
          "name": "_name",
          "type": "string"
        },
        {
          "internalType": "string",
          "name": "subject1",
          "type": "string"
        },
        {
          "internalType": "int256",
          "name": "subject1Marks",
          "type": "int256"
        },
        {
          "internalType": "string",
          "name": "subject2",
          "type": "string"
        },
        {
          "internalType": "int256",
          "name": "subject2Marks",
          "type": "int256"
        },
        {
          "internalType": "string",
          "name": "subject3",
          "type": "string"
        },
        {
          "internalType": "int256",
          "name": "subject3Marks",
          "type": "int256"
        },
        {
          "internalType": "string",
          "name": "subject4",
          "type": "string"
        },
        {
          "internalType": "int256",
          "name": "subject4Marks",
          "type": "int256"
        },
        {
          "internalType": "string",
          "name": "subject5",
          "type": "string"
        },
        {
          "internalType": "int256",
          "name": "subject5Marks",
          "type": "int256"
        }
      ],
      "name": "createStudent",
      "outputs": [],
      "stateMutability": "nonpayable",
      "type": "function"
    }
  ],
  "bytecode": "0x6080604052600080553480156200001557600080fd5b50620000fb604051806040016040528060058152602001640a0c2e4e8d60db1b8152506040518060400160405280600c81526020016b4d617468656d61746963686560a01b815250604b604051806040016040528060078152602001665068797369637360c81b815250604b604051806040016040528060098152602001684368656d697374727960b81b81525060386040518060400160405280600881526020016743616c63756c757360c01b815250605a6040518060400160405280600c81526020016b6e6575726f736369656e636560a01b81525060266200010160201b60201c565b620004f2565b60008054908062000112836200037b565b919050555060405180610180016040528060005481526020018c81526020018b81526020018a8152602001898152602001888152602001878152602001868152602001858152602001848152602001838152602001828152506001600080548152602001908152602001600020600082015181600001556020820151816001019080519060200190620001a7929190620002d5565b5060408201518051620001c5916002840191602090910190620002d5565b506060820151600382015560808201518051620001ed916004840191602090910190620002d5565b5060a0820151600582015560c0820151805162000215916006840191602090910190620002d5565b5060e0820151600782015561010082015180516200023e916008840191602090910190620002d5565b50610120820151600982015561014082015180516200026891600a840191602090910190620002d5565b5061016082015181600b01559050507f177684320c2e3a0693343cfa0f3d5f36bd6035cea96ed398b325197440700b366000548c8c8c8c8c8c8c8c8c8c8c604051620002c09c9b9a99989796959493929190620003f5565b60405180910390a15050505050505050505050565b828054620002e390620004b5565b90600052602060002090601f01602090048101928262000307576000855562000352565b82601f106200032257805160ff191683800117855562000352565b8280016001018555821562000352579182015b828111156200035257825182559160200191906001019062000335565b506200036092915062000364565b5090565b5b8082111562000360576000815560010162000365565b60006000198214156200039e57634e487b7160e01b600052601160045260246000fd5b5060010190565b6000815180845260005b81811015620003cd57602081850181015186830182015201620003af565b81811115620003e0576000602083870101525b50601f01601f19169290920160200192915050565b60006101808e8352806020840152620004118184018f620003a5565b9050828103604084015262000427818e620003a5565b90508b6060840152828103608084015262000443818c620003a5565b90508960a084015282810360c08401526200045f818a620003a5565b90508760e08401528281036101008401526200047c8188620003a5565b9050856101208401528281036101408401526200049a8186620003a5565b915050826101608301529d9c50505050505050505050505050565b600181811c90821680620004ca57607f821691505b60208210811415620004ec57634e487b7160e01b600052602260045260246000fd5b50919050565b610a1180620005026000396000f3fe608060405234801561001057600080fd5b50600436106100415760003560e01c806306ead22e14610046578063752c3d581461007a578063e581f9ee1461008f575b600080fd5b61005961005436600461068b565b6100a6565b6040516100719c9b9a999897969594939291906106f1565b60405180910390f35b61008d610088366004610848565b61042e565b005b61009860005481565b604051908152602001610071565b6001602081905260009182526040909120805491810180546100c790610977565b80601f01602080910402602001604051908101604052809291908181526020018280546100f390610977565b80156101405780601f1061011557610100808354040283529160200191610140565b820191906000526020600020905b81548152906001019060200180831161012357829003601f168201915b50505050509080600201805461015590610977565b80601f016020809104026020016040519081016040528092919081815260200182805461018190610977565b80156101ce5780601f106101a3576101008083540402835291602001916101ce565b820191906000526020600020905b8154815290600101906020018083116101b157829003601f168201915b5050505050908060030154908060040180546101e990610977565b80601f016020809104026020016040519081016040528092919081815260200182805461021590610977565b80156102625780601f1061023757610100808354040283529160200191610262565b820191906000526020600020905b81548152906001019060200180831161024557829003601f168201915b50505050509080600501549080600601805461027d90610977565b80601f01602080910402602001604051908101604052809291908181526020018280546102a990610977565b80156102f65780601f106102cb576101008083540402835291602001916102f6565b820191906000526020600020905b8154815290600101906020018083116102d957829003601f168201915b50505050509080600701549080600801805461031190610977565b80601f016020809104026020016040519081016040528092919081815260200182805461033d90610977565b801561038a5780601f1061035f5761010080835404028352916020019161038a565b820191906000526020600020905b81548152906001019060200180831161036d57829003601f168201915b50505050509080600901549080600a0180546103a590610977565b80601f01602080910402602001604051908101604052809291908181526020018280546103d190610977565b801561041e5780601f106103f35761010080835404028352916020019161041e565b820191906000526020600020905b81548152906001019060200180831161040157829003601f168201915b50505050509080600b015490508c565b60008054908061043d836109b2565b919050555060405180610180016040528060005481526020018c81526020018b81526020018a81526020018981526020018881526020018781526020018681526020018581526020018481526020018381526020018281525060016000805481526020019081526020016000206000820151816000015560208201518160010190805190602001906104d09291906105f2565b50604082015180516104ec9160028401916020909101906105f2565b5060608201516003820155608082015180516105129160048401916020909101906105f2565b5060a0820151600582015560c082015180516105389160068401916020909101906105f2565b5060e08201516007820155610100820151805161055f9160088401916020909101906105f2565b506101208201516009820155610140820151805161058791600a8401916020909101906105f2565b5061016082015181600b01559050507f177684320c2e3a0693343cfa0f3d5f36bd6035cea96ed398b325197440700b366000548c8c8c8c8c8c8c8c8c8c8c6040516105dd9c9b9a999897969594939291906106f1565b60405180910390a15050505050505050505050565b8280546105fe90610977565b90600052602060002090601f0160209004810192826106205760008555610666565b82601f1061063957805160ff1916838001178555610666565b82800160010185558215610666579182015b8281111561066657825182559160200191906001019061064b565b50610672929150610676565b5090565b5b808211156106725760008155600101610677565b60006020828403121561069d57600080fd5b5035919050565b6000815180845260005b818110156106ca576020818501810151868301820152016106ae565b818111156106dc576000602083870101525b50601f01601f19169290920160200192915050565b60006101808e835280602084015261070b8184018f6106a4565b9050828103604084015261071f818e6106a4565b90508b60608401528281036080840152610739818c6106a4565b90508960a084015282810360c0840152610753818a6106a4565b90508760e084015282810361010084015261076e81886106a4565b90508561012084015282810361014084015261078a81866106a4565b915050826101608301529d9c50505050505050505050505050565b634e487b7160e01b600052604160045260246000fd5b600082601f8301126107cc57600080fd5b813567ffffffffffffffff808211156107e7576107e76107a5565b604051601f8301601f19908116603f0116810190828211818310171561080f5761080f6107a5565b8160405283815286602085880101111561082857600080fd5b836020870160208301376000602085830101528094505050505092915050565b60008060008060008060008060008060006101608c8e03121561086a57600080fd5b67ffffffffffffffff808d35111561088157600080fd5b61088e8e8e358f016107bb565b9b508060208e013511156108a157600080fd5b6108b18e60208f01358f016107bb565b9a5060408d013599508060608e013511156108cb57600080fd5b6108db8e60608f01358f016107bb565b985060808d013597508060a08e013511156108f557600080fd5b6109058e60a08f01358f016107bb565b965060c08d013595508060e08e0135111561091f57600080fd5b61092f8e60e08f01358f016107bb565b94506101008d01359350806101208e0135111561094b57600080fd5b5061095d8d6101208e01358e016107bb565b91506101408c013590509295989b509295989b9093969950565b600181811c9082168061098b57607f821691505b602082108114156109ac57634e487b7160e01b600052602260045260246000fd5b50919050565b60006000198214156109d457634e487b7160e01b600052601160045260246000fd5b506001019056fea2646970667358221220aca5df65633cc343c8c175fb5a04bbbece816f7f480b9c8ead79e1b2bf1d4e9764736f6c634300080b0033",
  "immutableReferences": {},
  "source": "// SPDX-License-Identifier: MIT\npragma solidity >=0.4.22 <0.9.0;\n\ncontract StudentResult {\n    uint256 public studentCount = 0;\n\n    struct Student {\n        uint256 id;\n        string name;\n        string subject1;\n        int256 subject1Marks;\n        string subject2;\n        int256 subject2Marks;\n        string subject3;\n        int256 subject3Marks;\n        string subject4;\n        int256 subject4Marks;\n        string subject5;\n        int256 subject5Marks;\n    }\n\n    event StudentCreated(\n        uint256 id,\n        string name,\n        string subject1,\n        int256 subject1Marks,\n        string subject2,\n        int256 subject2Marks,\n        string subject3,\n        int256 subject3Marks,\n        string subject4,\n        int256 subject4Marks,\n        string subject5,\n        int256 subject5Marks\n    );\n\n    mapping(uint256 => Student) public students;\n\n    constructor() {\n        createStudent(\n            \"Parth\",\n            \"Mathematiche\",\n            75,\n            \"Physics\",\n            75,\n            \"Chemistry\",\n            56,\n            \"Calculus\",\n            90,\n            \"neuroscience\",\n            38\n        );\n    }\n\n    function createStudent(\n        string memory _name,\n        string memory subject1,\n        int256 subject1Marks,\n        string memory subject2,\n        int256 subject2Marks,\n        string memory subject3,\n        int256 subject3Marks,\n        string memory subject4,\n        int256 subject4Marks,\n        string memory subject5,\n        int256 subject5Marks\n    ) public {\n        studentCount++;\n\n        students[studentCount] = Student(\n            studentCount,\n            _name,\n            subject1,\n            subject1Marks,\n            subject2,\n            subject2Marks,\n            subject3,\n            subject3Marks,\n            subject4,\n            subject4Marks,\n            subject5,\n            subject5Marks\n        );\n\n        emit StudentCreated(\n            studentCount,\n            _name,\n            subject1,\n            subject1Marks,\n            subject2,\n            subject2Marks,\n            subject3,\n            subject3Marks,\n            subject4,\n            subject4Marks,\n            subject5,\n            subject5Marks\n        );\n    }\n}\n// GQCgtd@6421*",
  "sourcePath": "/Users/par1/projects/student_result_binance/contracts/StudentResult.sol",
  "compiler": {
    "name": "solc",
    "version": "0.8.11+commit.d7f03943.Emscripten.clang"
  },
  "schemaVersion": "3.4.4",
  "updatedAt": "2022-02-02T16:10:32.536Z",
  "networkType": "ethereum",
  "devdoc": {
    "kind": "dev",
    "methods": {},
    "version": 1
  },
  "userdoc": {
    "kind": "user",
    "methods": {},
    "version": 1
  }
}