{
  "contractName": "StudentResult",
  "abi": [
    {
      "inputs": [],
      "name": "studentCount",
      "outputs": [
        {
          "internalType": "uint256",
          "name": "",
          "type": "uint256"
        }
      ],
      "stateMutability": "view",
      "type": "function",
      "constant": true
    }
  ],
  "bytecode": "0x608060405260008055348015601357600080fd5b50607d806100226000396000f3fe6080604052348015600f57600080fd5b506004361060285760003560e01c8063e581f9ee14602d575b600080fd5b603560005481565b60405190815260200160405180910390f3fea2646970667358221220608e98271036d8fde2dab2e99570d5488eba619eb428c51587dbeb8b3fa32ca564736f6c634300080b0033",
  "immutableReferences": {},
  "source": "// SPDX-License-Identifier: MIT\npragma solidity >=0.4.22 <0.9.0;\n\ncontract StudentResult {\n    uint256 public studentCount = 0;\n}",
  "sourcePath": "/home/par/projects/binance-student-result/contracts/StudentResult.sol",
  "compiler": {
    "name": "solc",
    "version": "0.8.11+commit.d7f03943.Emscripten.clang"
  },
  "schemaVersion": "3.4.4",
  "updatedAt": "2022-02-02T06:57:07.900Z",
  "networkType": "ethereum",
  "devdoc": {
    "kind": "dev",
    "methods": {},
    "version": 1
  },
  "userdoc": {
    "kind": "user",
    "methods": {},
    "version": 1
  }
}